:040000006BEF00F0B2
:100008004D82FACF01F0FBCF02F0E9CF03F0EACF3F
:1000180004F0E1CF05F0E2CF06F0D9CF07F0DACF50
:1000280008F0F3CF09F0F4CF0AF0F6CF0BF0F7CFD2
:100038000CF0F8CF0DF0F5CF0EF04DC00FF04EC01C
:1000480010F04FC011F050C012F0F2AC1AD09DB8A9
:100058009EA808D001D815D00500FA6E4350FD6E51
:1000680044500AD09DBA9EAA0CD001D80AD00500E7
:10007800FA6E4150FD6E4250FE6EF850FF6EFA5017
:10008800120012C050F011C04FF010C04EF00FC057
:100098004DF00EC0F5FF0DC0F8FF0CC0F7FF0BC008
:1000A800F6FF0AC0F4FF09C0F3FF08C0DAFF07C073
:1000B800D9FF06C0E2FF05C0E1FF04C0EAFF03C0A4
:1000C800E9FF02C0FBFF01C0FAFF4D9211006FEF7C
:1000D80005F030EC06F0F28E07D081B202D0000EA7
:1000E80001D0010E00018D6F000E01EC06F0BC0E70
:1000F800135C020E1458D8A0F0D7000E0001856FCB
:1001080014D08BBE02D08B8E01D08B9E090E0001BD
:100118007C6F1E0E7B6FE40EE82EFED77B2FFCD77C
:100128007C2FFAD700F00001852B0F0E8565E9D7E3
:100138004C80000E0001866F040E866501D021D028
:10014800E8EC04F000018D05D8A40DD0B151872545
:10015800876FB2518821886FAF517D257D6FB0516F
:100168007E217E6F0CD0AB518925896FAC518A21D5
:100178008A6FAD517F257F6FAE518021806F862BAE
:10018800DBD78D05D8A41DD087C013F088C014F024
:10019800000E166E050E156E6CEC04F013C087F099
:1001A80014C088F07DC013F07EC014F0000E166EE7
:1001B800050E156E6CEC04F013C07DF014C07EF0D3
:1001C8001CD089C013F08AC014F0000E166E050EFC
:1001D800156E6CEC04F013C089F014C08AF07FC06F
:1001E80013F080C014F0000E166E050E156E6CEC40
:1001F80004F013C07FF014C080F04CA009D00001B7
:100208008D05D8A405D087C03FF088C040F00AD03B
:100218004CA009D000018D51D8A405D089C03FF069
:100228008AC040F04C9000018D05D8A432D087C018
:1002380036F088C037F04BEC03F036C06CF037C0AE
:100248006DF038C06EF055EC02F06CC08BF06DC0EC
:100258008CF0EE0E00018B25816F020E8C21826FCF
:100268008BC07BF08CC07CF07B1F7C1F7B4B7C2B76
:10027800EE0E7B25836F020E7C21846F81C019F0FE
:1002880082C01AF083C01BF084C01CF067EC06F033
:1002980050D789C036F08AC037F04BEC03F036C02F
:1002A8006CF037C06DF038C06EF055EC02F06CC0E1
:1002B8008BF06DC08CF08BC07BF08CC07CF00001A3
:1002C8007B1F7C1F7B4B7C2BEE0E7B25816F020EE8
:1002D8007C21826FEE0E8B25836F020E8C21846F3A
:1002E80081C019F082C01AF083C01BF084C01CF0D2
:1002F80067EC06F01ED71DC021F0226A236A1C3461
:10030800213601E322802150266E20C021F0226A86
:10031800236A1F34213601E322802150256E26509E
:10032800D8B40BD02550265CD8B00ED02650000883
:100338002524216E180E216407D01EC01BF01FC093
:100348001CF020C01DF012002550D8B40BD0265048
:10035800255CD8B00ED0255000082624216E180E32
:10036800216407D01BC01BF01CC01CF01DC01DF071
:100378001200060E246E1DBE248E20BE248C1C8EF8
:10038800FF0E1B16FF0E1C16000E1D161F8EFF0EED
:100398001E16FF0E1F16000E20162550265CD8B01C
:1003A8001BD0D8901E361F36203625062650251815
:1003B800D8B40DD0240624C021F0070E2116D8B4D5
:1003C80006D0EFD7D8901D321C321B32262A255072
:1003D8002618D8B41FD0F6D72650255CD8B01AD026
:1003E800D8901B361C361D36260626502518D8B43C
:1003F8000DD0240624C021F0070E2116D8B406D04B
:10040800EFD7D89020321F321E32252A25502618C1
:10041800D8A4F7D724AE0CD0FF0E1B1AFF0E1C1A57
:10042800FF0E1D1A010E1B26000E1C22000E1D2297
:1004380024AC0CD0FF0E1E1AFF0E1F1AFF0E201A36
:10044800010E1E26000E1F22000E2022000E246E12
:100458001B501E261C501F221D50202220AE0ED0DD
:10046800FF0E1E1AFF0E1F1AFF0E201A010E1E265F
:10047800000E1F22000E2022010E246E1EC013F053
:100488001FC014F020C015F026C016F024C017F0C5
:10049800C0EC03F013C01BF014C01CF015C01DF015
:1004A80012006EC070F00001716B726B6D357037A1
:1004B80001E3718170517A6F7A51D8A409D0000E86
:1004C8006C6F000E6D6F000E6E6F000E6F6F120076
:1004D800170E706F6CC071F06DC072F06EC073F063
:1004E8007029746F04D0D890733372337133742FBA
:1004F800FAD700017151756F6D8FFF0E6C17FF0EE3
:100508006D17000E6E176C51766F6D51776F6E51C7
:10051800786F796B8E0E7A5F7AAF16D07A51800A2F
:100528008F0FD8B009D0000E6C6F000E6D6F000EE3
:100538006E6F000E6F6F1200D8907933783377336F
:1005480076337A3FF9D715D0170E7A650FD0000E9B
:100558006C6F000E6D6F000E6E6F000E6F6F1200E5
:10056800D89076377737783779377A077A51D8A499
:10057800F7D77551D8B408D0791F781F771F766DD3
:10058800000E77237823792376C06CF077C06DF05E
:1005980078C06EF079C06FF0120029C02DF02E6A75
:1005A8002F6A28342D3601E32E802D50306E3050BE
:1005B800D8A407D0000E276E000E286E000E296EF4
:1005C80012002CC02DF02E6A2F6A2B342D3601E331
:1005D8002E802D50356E3550D8A407D0000E276ECA
:1005E800000E286E000E296E120035507B0F302643
:1005F80029C035F02C50351A800E3516288E2B8ED2
:10060800FF0E2A16FF0E2B16000E2C16000E316E4A
:10061800000E326E000E336E070E346E27A006D021
:100628002A5031262B5032222C503322D89029328E
:1006380028322732D8902A362B362C36342EEED74D
:10064800090E346E27A006D02A5031262B503222AC
:100658002C503322D890293228322732D89033327E
:1006680032323132342EEED731C013F032C014F0AA
:1006780033C015F030C016F035C017F0C0EC03F0E9
:1006880013C027F014C028F015C029F0120036C096
:1006980039F037C03AF0391E3A1E394A3A2A3F50E3
:1006A80039241B6E40503A201C6EB3EC05F01BC079
:1006B80069F01CC06AF01DC06BF069C027F06AC001
:1006C80028F06BC029F0B6C02AF0B7C02BF0B8C02C
:1006D8002CF0D1EC02F027C063F028C064F029C0E8
:1006E80065F069C01EF06AC01FF06BC020F0A6C09C
:1006F80013F0A7C014F0A8C015F043EC06F013C01F
:100708001BF014C01CF015C01DF07FEC01F01BC0DD
:1007180027F01CC028F01DC029F0B3C02AF0B4C0CF
:100728002BF0B5C02CF0D1EC02F027C066F028C041
:1007380067F029C068F063C01BF064C01CF065C096
:100748001DF066C01EF067C01FF068C020F07FEC87
:1007580001F01BC060F01CC061F01DC062F069C0F0
:10076800A6F06AC0A7F06BC0A8F060C036F061C000
:1007780037F062C038F012001650D8B405D01350C4
:1007880014101510D8A40CD0000E136E000E146EA1
:10079800000E156E1200162AD89015321432133234
:1007A800000E1314186E000E1414196EFE0E151494
:1007B8001A6E185019101A10D8B40CD0ECD7162A83
:1007C800010E1326000E1422000E1522D8901532A1
:1007D80014321332000E1314186E000E1414196E0E
:1007E800FF0E15141A6E185019101A10D8B406D026
:1007F800E6D71606D89013361436153614BE03D02D
:10080800020E1660F6D716A0149ED890163216500F
:1008180015121750D8A4158E13C013F014C014F075
:1008280015C015F012004850010D8E0EF324D96E34
:10083800000EF420DA6E000EDF6EABA416D048501E
:10084800010D8E0EF324D96E000EF420DA6E00012D
:10085800DF8201D80AD00500FA6E3D50FD6E3E5089
:10086800FE6EF850FF6EFA501200ABA216D0485038
:10087800010D8E0EF324D96E000EF420DA6E0001FD
:10088800DF8401D80AD00500FA6E3B50FD6E3C505B
:10089800FE6EF850FF6EFA5012004850010D8E0E91
:1008A800F324D96E000EF420DA6EDF50D8B40DD0E0
:1008B80001D8120005000001FA6EA951FD6EAA5177
:1008C800FE6EF850FF6EFA50120055EC06F012005A
:1008D800000E186E16AE06D0156C161ED8B0162A65
:1008E800010E186E14AE06D0136C141ED8B0142A5C
:1008F800010E181A000E1A6E000E196E15501610F9
:10090800D8B41CD0010E176E04D0D8901536163600
:10091800172A16AEFAD7D89019361A361550135C1E
:1009280016501458D8A005D01550135E1650145AF6
:100938001980D89016321532172EEDD71850D8B422
:1009480004D0196C1A1ED8B01A2A19C013F01AC08C
:1009580014F012009D9A2E0E136E080E146EB1EC50
:1009680006F09D98320E136E0C0E146EACEC06F069
:10097800080EB86E800EAB6E240EAC6E820EAF6E93
:10098800060EB06EA00E136E0D0E146EBBEC06F0C4
:10099800900E136E0D0E146EB6EC06F0960E136ED6
:1009A8000D0E146EC0EC06F0000E456E000E4B6E78
:1009B800000E4A6E080E496E000E486E000E476E15
:1009C800000E466E9D8A12000B0E01EC06F00D0E0D
:1009D80001EC06F00B0E01EC06F00D0E01EC06F032
:1009E800000E01EC06F013C018F014C019F018C07E
:1009F800B1F019C0B2F0010E01EC06F013C01AF004
:100A080014C01BF01AC0AFF01BC0B0F0020E01EC0E
:100A180006F013C01CF014C01DF01CC0ADF01DC0C2
:100A2800AEF0030E01EC06F013C01EF014C01FF068
:100A38001EC0ABF01FC0ACF0120018BE08D0040EE8
:100A4800185CD8A004D0030E186E17680BD018AE27
:100A580009D01704FC0E1858D8B004D0FC0E186E34
:100A6800010E176E18BE03D08C808C9406D08C9023
:100A78008C84176C181ED8B0182A17C013F018C029
:100A880014F0CFEC05F0120018BE08D0040E185C64
:100A9800D8A004D0030E186E17680BD018AE09D072
:100AA8001704FC0E1858D8B004D0FC0E186E010EAE
:100AB800176E18BE03D08B868B9406D08B968B84CA
:100AC800176C181ED8B0182A17C013F018C014F0E5
:100AD800E8EC05F012008A0EF66E0D0EF76E000EA9
:100AE800F86E00EEB3F010EE06F00900F5CFEEFF59
:100AF800E550E150FAE100EE8EF0250EEE6AE806C8
:100B0800FDE14C6A00EE3BF0110EEE6AE806FDE1ED
:100B18004D904D92000EF86E00016DEF00F0000E42
:100B28008D6E000E8C6E000E896E000E8A6E000EA1
:100B38008B6E030E966E92689368BF0E946EFD0ED0
:100B4800956E0F013B69BC0E3A6F3F0E396F070E69
:100B58003C6F2F0E386F000E616EF18E1200000E82
:100B68001E6E1CAE06D01B6C1C1ED8B01C2A010EB3
:100B78001E6E1BC013F01CC014F0156A8E0E166E84
:100B88001EC017F0C0EC03F013C01BF014C01CF01B
:100B980015C01DF0120013C015F014C016F0D8903F
:100BA80016321532D8901632153215500F01586F7B
:100BB80013C015F0030E1516153AF00E15165751F9
:100BC800CF0B1510576F120013C015F014C016F094
:100BD800D89016321532D8901632153215500F01AA
:100BE800556F13C015F0030E1516153AF00E1516AD
:100BF8005451CF0B1510546F1200176E17C015F013
:100C080015461546C2501518830B1518C26EC280BA
:100C1800C282C2B2FED7C450166E156AC3501524DC
:100C2800136E000E1620146E1200080E496012D0C2
:100C38004A50010D9E0EF324D96E000EF420DA6E90
:100C4800DF50AD6E4A2A070E4A6402D0000E4A6E83
:100C5800492A12009D981200CEEC06F093EC05F09C
:100C68009CEC06F074EC06F089EC06F093EC06F0C8
:100C7800A5EC06F07FEC06F0AEEC04F01200135081
:100C880014101510D8B406D0000E131A000E141A3A
:100C9800800E151A13C013F014C014F015C015F007
:100CA80012004850010D960EF324D96E000EF42060
:100CB800DA6EAECFDFFF482A070E486402D0000E76
:100CC800486E462A120019C017F01AC018F048ECEE
:100CD80005F01BC017F01CC018F021EC05F012003D
:100CE800010EC26E000EC16E060EC06E000EC36EFF
:100CF800000EC46E12000C0E0F01546F000E556FDB
:100D0800000E566FF30E481712000C0E0F01576FA6
:100D1800000E586F000E596FFC0E48171200E80EAF
:100D28000F01526F000E536F7E905D0E516F1200CF
:100D3800700ED36E040ED26E400E9B6ED2BE1200A1
:100D4800FDD7BB68000EBC6E9E92040EBA6E1200F0
:100D580013C043F014C044F0120013C041F014C093
:100D680042F0120013C03BF014C03CF0120013C054
:100D78003DF014C03EF0120013C0A9F014C0AAF050
:100D88001200002041CD4C3FAB98AB88120055ECC7
:0A0D980006F01200D09E12001200B7
:020000040020DA
:08000000FFFFFFFFFFFFFFFF00
:020000040030CA
:0E000000FF281F3CFFBF85FF0FC00FE00F4021
:00000001FF
