:04000000CFEF3FF00F
:107F9800D2EC3FF0FFD70001CCEF3FF0E0EC3FF030
:107FA800D7EC3FF01200700ED36E040ED26E400E66
:107FB8009B6ED2BE1200FDD7000E8D6E000E8C6E29
:107FC800000E896E000E8A6E000E8B6E070E966E7E
:107FD80092689368710E946EFA0E956E0F013B6964
:107FE800FC0E3A6F3F0E396F070E3C6F2F0E386F3D
:087FF800000E616EF18E120013
:020000040020DA
:08000000FFFFFFFFFFFFFFFF00
:020000040030CA
:0E000000FF281F3CFFBF85FF0FC00FE00F4021
:00000001FF
